1AIRLINE STANDARD SCHEDULE DATA SET     1                                                                                                                                                      001000001
00000000000000000000000000000000000000000000000000000000000000000000000000000000000000000000000000000000000000000000000000000000000000000000000000000000000000000000000000000000000000000000000000000000
00000000000000000000000000000000000000000000000000000000000000000000000000000000000000000000000000000000000000000000000000000000000000000000000000000000000000000000000000000000000000000000000000000000
00000000000000000000000000000000000000000000000000000000000000000000000000000000000000000000000000000000000000000000000000000000000000000000000000000000000000000000000000000000000000000000000000000000
00000000000000000000000000000000000000000000000000000000000000000000000000000000000000000000000000000000000000000000000000000000000000000000000000000000000000000000000000000000000000000000000000000000
2ULH  0008W12 28OCT1230MAR1326FEB14                             26FEB14C NetLine/Sched  9.1.2.2                                                                                               0755000002
00000000000000000000000000000000000000000000000000000000000000000000000000000000000000000000000000000000000000000000000000000000000000000000000000000000000000000000000000000000000000000000000000000000
00000000000000000000000000000000000000000000000000000000000000000000000000000000000000000000000000000000000000000000000000000000000000000000000000000000000000000000000000000000000000000000000000000000
00000000000000000000000000000000000000000000000000000000000000000000000000000000000000000000000000000000000000000000000000000000000000000000000000000000000000000000000000000000000000000000000000000000
00000000000000000000000000000000000000000000000000000000000000000000000000000000000000000000000000000000000000000000000000000000000000000000000000000000000000000000000000000000000000000000000000000000
3 LH 0000xxxxF01JAN0001JAN001234567 AAA00000000+0000  BAA00010001+0000  M1F                                                     YF                  L                       PP26                  000003
3 LH 0001xxxxF01JAN0001JAN001234567 BAA00020002+0000  CAA00030003+0000  M1F                                                     YF                  L                       PP26                  000003
3 LH 0002xxxxF01JAN0001JAN001234567 CAA00040004+0000  DAA00050005+0000  M1F                                                     YF                  L                       PP26                  000003
3 LH 0003xxxxF01JAN0001JAN001234567 DAA00060006+0000  EAA00070007+0000  M1F                                                     YF                  L                       PP26                  000003
3 LH 0004xxxxF01JAN0001JAN001234567 EAA00080008+0000  FAA00090009+0000  M1F                                                     YF                  L                       PP26                  000003
3 LH 0005xxxxF01JAN0001JAN001234567 FAA00100010+0000  GAA00110011+0000  M1F                                                     YF                  L                       PP26                  000003
3 LH 0006xxxxF01JAN0001JAN001234567 GAA00120012+0000  HAA00130013+0000  M1F                                                     YF                  L                       PP26                  000003
3 LH 0007xxxxF01JAN0001JAN001234567 HAA00140014+0000  IAA00150015+0000  M1F                                                     YF                  L                       PP26                  000003
3 LH 0008xxxxF01JAN0001JAN001234567 IAA00160016+0000  JAA00170017+0000  M1F                                                     YF                  L                       PP26                  000003
3 LH 0009xxxxF01JAN0001JAN001234567 JAA00180018+0000  KAA00190019+0000  M1F                                                     YF                  L                       PP26                  000003
3 LH 0010xxxxF01JAN0001JAN001234567 KAA00200020+0000  LAA00210021+0000  M1F                                                     YF                  L                       PP26                  000003
3 LH 0011xxxxF01JAN0001JAN001234567 LAA00220022+0000  MAA00230023+0000  M1F                                                     YF                  L                       PP26                  000003
3 LH 0012xxxxF01JAN0001JAN001234567 MAA00240024+0000  NAA00250025+0000  M1F                                                     YF                  L                       PP26                  000003
3 LH 0013xxxxF01JAN0001JAN001234567 NAA00260026+0000  OAA00270027+0000  M1F                                                     YF                  L                       PP26                  000003
3 LH 0014xxxxF01JAN0001JAN001234567 OAA00280028+0000  PAA00290029+0000  M1F                                                     YF                  L                       PP26                  000003
3 LH 0015xxxxF01JAN0001JAN001234567 PAA00300030+0000  QAA00310031+0000  M1F                                                     YF                  L                       PP26                  000003
3 LH 0016xxxxF01JAN0001JAN001234567 QAA00320032+0000  RAA00330033+0000  M1F                                                     YF                  L                       PP26                  000003
3 LH 0017xxxxF01JAN0001JAN001234567 RAA00340034+0000  SAA00350035+0000  M1F                                                     YF                  L                       PP26                  000003
3 LH 0018xxxxF01JAN0001JAN001234567 SAA00360036+0000  TAA00370037+0000  M1F                                                     YF                  L                       PP26                  000003
3 LH 0019xxxxF01JAN0001JAN001234567 TAA00380038+0000  UAA00390039+0000  M1F                                                     YF                  L                       PP26                  000003
3 LH 0020xxxxF01JAN0001JAN001234567 UAA00400040+0000  VAA00410041+0000  M1F                                                     YF                  L                       PP26                  000003
3 LH 0021xxxxF01JAN0001JAN001234567 VAA00420042+0000  WAA00430043+0000  M1F                                                     YF                  L                       PP26                  000003
3 LH 0022xxxxF01JAN0001JAN001234567 WAA00440044+0000  XAA00450045+0000  M1F                                                     YF                  L                       PP26                  000003
3 LH 0023xxxxF01JAN0001JAN001234567 XAA00460046+0000  YAA00470047+0000  M1F                                                     YF                  L                       PP26                  000003
3 LH 0024xxxxF01JAN0001JAN001234567 YAA00480048+0000  ZAA00490049+0000  M1F                                                     YF                  L                       PP26                  000003
3 LH 0025xxxxF01JAN0001JAN001234567 ZAA00500050+0000  ABA00510051+0000  M1F                                                     YF                  L                       PP26                  000003
3 LH 0026xxxxF01JAN0001JAN001234567 ABA00520052+0000  BBA00530053+0000  M1F                                                     YF                  L                       PP26                  000003
3 LH 0027xxxxF01JAN0001JAN001234567 BBA00540054+0000  CBA00550055+0000  M1F                                                     YF                  L                       PP26                  000003
3 LH 0028xxxxF01JAN0001JAN001234567 CBA00560056+0000  DBA00570057+0000  M1F                                                     YF                  L                       PP26                  000003
3 LH 0029xxxxF01JAN0001JAN001234567 DBA00580058+0000  EBA00590059+0000  M1F                                                     YF                  L                       PP26                  000003
3 LH 0030xxxxF01JAN0001JAN001234567 EBA01000100+0000  FBA01010101+0000  M1F                                                     YF                  L                       PP26                  000003
3 LH 0031xxxxF01JAN0001JAN001234567 FBA01020102+0000  GBA01030103+0000  M1F                                                     YF                  L                       PP26                  000003
3 LH 0032xxxxF01JAN0001JAN001234567 GBA01040104+0000  HBA01050105+0000  M1F                                                     YF                  L                       PP26                  000003
3 LH 0033xxxxF01JAN0001JAN001234567 HBA01060106+0000  IBA01070107+0000  M1F                                                     YF                  L                       PP26                  000003
3 LH 0034xxxxF01JAN0001JAN001234567 IBA01080108+0000  JBA01090109+0000  M1F                                                     YF                  L                       PP26                  000003
3 LH 0035xxxxF01JAN0001JAN001234567 JBA01100110+0000  KBA01110111+0000  M1F                                                     YF                  L                       PP26                  000003
3 LH 0036xxxxF01JAN0001JAN001234567 KBA01120112+0000  LBA01130113+0000  M1F                                                     YF                  L                       PP26                  000003
3 LH 0037xxxxF01JAN0001JAN001234567 LBA01140114+0000  MBA01150115+0000  M1F                                                     YF                  L                       PP26                  000003
3 LH 0038xxxxF01JAN0001JAN001234567 MBA01160116+0000  NBA01170117+0000  M1F                                                     YF                  L                       PP26                  000003
3 LH 0039xxxxF01JAN0001JAN001234567 NBA01180118+0000  OBA01190119+0000  M1F                                                     YF                  L                       PP26                  000003
3 LH 0040xxxxF01JAN0001JAN001234567 OBA01200120+0000  PBA01210121+0000  M1F                                                     YF                  L                       PP26                  000003
3 LH 0041xxxxF01JAN0001JAN001234567 PBA01220122+0000  QBA01230123+0000  M1F                                                     YF                  L                       PP26                  000003
3 LH 0042xxxxF01JAN0001JAN001234567 QBA01240124+0000  RBA01250125+0000  M1F                                                     YF                  L                       PP26                  000003
3 LH 0043xxxxF01JAN0001JAN001234567 RBA01260126+0000  SBA01270127+0000  M1F                                                     YF                  L                       PP26                  000003
3 LH 0044xxxxF01JAN0001JAN001234567 SBA01280128+0000  TBA01290129+0000  M1F                                                     YF                  L                       PP26                  000003
3 LH 0045xxxxF01JAN0001JAN001234567 TBA01300130+0000  UBA01310131+0000  M1F                                                     YF                  L                       PP26                  000003
3 LH 0046xxxxF01JAN0001JAN001234567 UBA01320132+0000  VBA01330133+0000  M1F                                                     YF                  L                       PP26                  000003
3 LH 0047xxxxF01JAN0001JAN001234567 VBA01340134+0000  WBA01350135+0000  M1F                                                     YF                  L                       PP26                  000003
3 LH 0048xxxxF01JAN0001JAN001234567 WBA01360136+0000  XBA01370137+0000  M1F                                                     YF                  L                       PP26                  000003
3 LH 0049xxxxF01JAN0001JAN001234567 XBA01380138+0000  YBA01390139+0000  M1F                                                     YF                  L                       PP26                  000003
3 LH 0050xxxxF01JAN0001JAN001234567 YBA01400140+0000  ZBA01410141+0000  M1F                                                     YF                  L                       PP26                  000003
3 LH 0051xxxxF01JAN0001JAN001234567 ZBA01420142+0000  ACA01430143+0000  M1F                                                     YF                  L                       PP26                  000003
3 LH 0052xxxxF01JAN0001JAN001234567 ACA01440144+0000  BCA01450145+0000  M1F                                                     YF                  L                       PP26                  000003
3 LH 0053xxxxF01JAN0001JAN001234567 BCA01460146+0000  CCA01470147+0000  M1F                                                     YF                  L                       PP26                  000003
3 LH 0054xxxxF01JAN0001JAN001234567 CCA01480148+0000  DCA01490149+0000  M1F                                                     YF                  L                       PP26                  000003
3 LH 0055xxxxF01JAN0001JAN001234567 DCA01500150+0000  ECA01510151+0000  M1F                                                     YF                  L                       PP26                  000003
3 LH 0056xxxxF01JAN0001JAN001234567 ECA01520152+0000  FCA01530153+0000  M1F                                                     YF                  L                       PP26                  000003
3 LH 0057xxxxF01JAN0001JAN001234567 FCA01540154+0000  GCA01550155+0000  M1F                                                     YF                  L                       PP26                  000003
3 LH 0058xxxxF01JAN0001JAN001234567 GCA01560156+0000  HCA01570157+0000  M1F                                                     YF                  L                       PP26                  000003
3 LH 0059xxxxF01JAN0001JAN001234567 HCA01580158+0000  ICA01590159+0000  M1F                                                     YF                  L                       PP26                  000003
3 LH 0060xxxxF01JAN0001JAN001234567 ICA02000200+0000  JCA02010201+0000  M1F                                                     YF                  L                       PP26                  000003
3 LH 0061xxxxF01JAN0001JAN001234567 JCA02020202+0000  KCA02030203+0000  M1F                                                     YF                  L                       PP26                  000003
3 LH 0062xxxxF01JAN0001JAN001234567 KCA02040204+0000  LCA02050205+0000  M1F                                                     YF                  L                       PP26                  000003
3 LH 0063xxxxF01JAN0001JAN001234567 LCA02060206+0000  MCA02070207+0000  M1F                                                     YF                  L                       PP26                  000003
3 LH 0064xxxxF01JAN0001JAN001234567 MCA02080208+0000  NCA02090209+0000  M1F                                                     YF                  L                       PP26                  000003
3 LH 0065xxxxF01JAN0001JAN001234567 NCA02100210+0000  OCA02110211+0000  M1F                                                     YF                  L                       PP26                  000003
3 LH 0066xxxxF01JAN0001JAN001234567 OCA02120212+0000  PCA02130213+0000  M1F                                                     YF                  L                       PP26                  000003
3 LH 0067xxxxF01JAN0001JAN001234567 PCA02140214+0000  QCA02150215+0000  M1F                                                     YF                  L                       PP26                  000003
3 LH 0068xxxxF01JAN0001JAN001234567 QCA02160216+0000  RCA02170217+0000  M1F                                                     YF                  L                       PP26                  000003
3 LH 0069xxxxF01JAN0001JAN001234567 RCA02180218+0000  SCA02190219+0000  M1F                                                     YF                  L                       PP26                  000003
3 LH 0070xxxxF01JAN0001JAN001234567 SCA02200220+0000  TCA02210221+0000  M1F                                                     YF                  L                       PP26                  000003
3 LH 0071xxxxF01JAN0001JAN001234567 TCA02220222+0000  UCA02230223+0000  M1F                                                     YF                  L                       PP26                  000003
3 LH 0072xxxxF01JAN0001JAN001234567 UCA02240224+0000  VCA02250225+0000  M1F                                                     YF                  L                       PP26                  000003
3 LH 0073xxxxF01JAN0001JAN001234567 VCA02260226+0000  WCA02270227+0000  M1F                                                     YF                  L                       PP26                  000003
3 LH 0074xxxxF01JAN0001JAN001234567 WCA02280228+0000  XCA02290229+0000  M1F                                                     YF                  L                       PP26                  000003
3 LH 0075xxxxF01JAN0001JAN001234567 XCA02300230+0000  YCA02310231+0000  M1F                                                     YF                  L                       PP26                  000003
3 LH 0076xxxxF01JAN0001JAN001234567 YCA02320232+0000  ZCA02330233+0000  M1F                                                     YF                  L                       PP26                  000003
3 LH 0077xxxxF01JAN0001JAN001234567 ZCA02340234+0000  ADA02350235+0000  M1F                                                     YF                  L                       PP26                  000003
3 LH 0078xxxxF01JAN0001JAN001234567 ADA02360236+0000  BDA02370237+0000  M1F                                                     YF                  L                       PP26                  000003
3 LH 0079xxxxF01JAN0001JAN001234567 BDA02380238+0000  CDA02390239+0000  M1F                                                     YF                  L                       PP26                  000003
3 LH 0080xxxxF01JAN0001JAN001234567 CDA02400240+0000  DDA02410241+0000  M1F                                                     YF                  L                       PP26                  000003
3 LH 0081xxxxF01JAN0001JAN001234567 DDA02420242+0000  EDA02430243+0000  M1F                                                     YF                  L                       PP26                  000003
3 LH 0082xxxxF01JAN0001JAN001234567 EDA02440244+0000  FDA02450245+0000  M1F                                                     YF                  L                       PP26                  000003
3 LH 0083xxxxF01JAN0001JAN001234567 FDA02460246+0000  GDA02470247+0000  M1F                                                     YF                  L                       PP26                  000003
3 LH 0084xxxxF01JAN0001JAN001234567 GDA02480248+0000  HDA02490249+0000  M1F                                                     YF                  L                       PP26                  000003
3 LH 0085xxxxF01JAN0001JAN001234567 HDA02500250+0000  IDA02510251+0000  M1F                                                     YF                  L                       PP26                  000003
3 LH 0086xxxxF01JAN0001JAN001234567 IDA02520252+0000  JDA02530253+0000  M1F                                                     YF                  L                       PP26                  000003
3 LH 0087xxxxF01JAN0001JAN001234567 JDA02540254+0000  KDA02550255+0000  M1F                                                     YF                  L                       PP26                  000003
3 LH 0088xxxxF01JAN0001JAN001234567 KDA02560256+0000  LDA02570257+0000  M1F                                                     YF                  L                       PP26                  000003
3 LH 0089xxxxF01JAN0001JAN001234567 LDA02580258+0000  MDA02590259+0000  M1F                                                     YF                  L                       PP26                  000003
3 LH 0090xxxxF01JAN0001JAN001234567 MDA03000300+0000  NDA03010301+0000  M1F                                                     YF                  L                       PP26                  000003
3 LH 0091xxxxF01JAN0001JAN001234567 NDA03020302+0000  ODA03030303+0000  M1F                                                     YF                  L                       PP26                  000003
3 LH 0092xxxxF01JAN0001JAN001234567 ODA03040304+0000  PDA03050305+0000  M1F                                                     YF                  L                       PP26                  000003
3 LH 0093xxxxF01JAN0001JAN001234567 PDA03060306+0000  QDA03070307+0000  M1F                                                     YF                  L                       PP26                  000003
3 LH 0094xxxxF01JAN0001JAN001234567 QDA03080308+0000  RDA03090309+0000  M1F                                                     YF                  L                       PP26                  000003
3 LH 0095xxxxF01JAN0001JAN001234567 RDA03100310+0000  SDA03110311+0000  M1F                                                     YF                  L                       PP26                  000003
3 LH 0096xxxxF01JAN0001JAN001234567 SDA03120312+0000  TDA03130313+0000  M1F                                                     YF                  L                       PP26                  000003
3 LH 0097xxxxF01JAN0001JAN001234567 TDA03140314+0000  UDA03150315+0000  M1F                                                     YF                  L                       PP26                  000003
3 LH 0098xxxxF01JAN0001JAN001234567 UDA03160316+0000  VDA03170317+0000  M1F                                                     YF                  L                       PP26                  000003
3 LH 0099xxxxF01JAN0001JAN001234567 VDA03180318+0000  WDA03190319+0000  M1F                                                     YF                  L                       PP26                  000003
3 LH 0100xxxxF01JAN0001JAN001234567 WDA03200320+0000  XDA03210321+0000  M1F                                                     YF                  L                       PP26                  000003
3 LH 0101xxxxF01JAN0001JAN001234567 XDA03220322+0000  YDA03230323+0000  M1F                                                     YF                  L                       PP26                  000003
3 LH 0102xxxxF01JAN0001JAN001234567 YDA03240324+0000  ZDA03250325+0000  M1F                                                     YF                  L                       PP26                  000003
3 LH 0103xxxxF01JAN0001JAN001234567 ZDA03260326+0000  AEA03270327+0000  M1F                                                     YF                  L                       PP26                  000003
3 LH 0104xxxxF01JAN0001JAN001234567 AEA03280328+0000  BEA03290329+0000  M1F                                                     YF                  L                       PP26                  000003
3 LH 0105xxxxF01JAN0001JAN001234567 BEA03300330+0000  CEA03310331+0000  M1F                                                     YF                  L                       PP26                  000003
3 LH 0106xxxxF01JAN0001JAN001234567 CEA03320332+0000  DEA03330333+0000  M1F                                                     YF                  L                       PP26                  000003
3 LH 0107xxxxF01JAN0001JAN001234567 DEA03340334+0000  EEA03350335+0000  M1F                                                     YF                  L                       PP26                  000003
3 LH 0108xxxxF01JAN0001JAN001234567 EEA03360336+0000  FEA03370337+0000  M1F                                                     YF                  L                       PP26                  000003
3 LH 0109xxxxF01JAN0001JAN001234567 FEA03380338+0000  GEA03390339+0000  M1F                                                     YF                  L                       PP26                  000003
3 LH 0110xxxxF01JAN0001JAN001234567 GEA03400340+0000  HEA03410341+0000  M1F                                                     YF                  L                       PP26                  000003
3 LH 0111xxxxF01JAN0001JAN001234567 HEA03420342+0000  IEA03430343+0000  M1F                                                     YF                  L                       PP26                  000003
3 LH 0112xxxxF01JAN0001JAN001234567 IEA03440344+0000  JEA03450345+0000  M1F                                                     YF                  L                       PP26                  000003
3 LH 0113xxxxF01JAN0001JAN001234567 JEA03460346+0000  KEA03470347+0000  M1F                                                     YF                  L                       PP26                  000003
3 LH 0114xxxxF01JAN0001JAN001234567 KEA03480348+0000  LEA03490349+0000  M1F                                                     YF                  L                       PP26                  000003
3 LH 0115xxxxF01JAN0001JAN001234567 LEA03500350+0000  MEA03510351+0000  M1F                                                     YF                  L                       PP26                  000003
3 LH 0116xxxxF01JAN0001JAN001234567 MEA03520352+0000  NEA03530353+0000  M1F                                                     YF                  L                       PP26                  000003
3 LH 0117xxxxF01JAN0001JAN001234567 NEA03540354+0000  OEA03550355+0000  M1F                                                     YF                  L                       PP26                  000003
3 LH 0118xxxxF01JAN0001JAN001234567 OEA03560356+0000  PEA03570357+0000  M1F                                                     YF                  L                       PP26                  000003
3 LH 0119xxxxF01JAN0001JAN001234567 PEA03580358+0000  QEA03590359+0000  M1F                                                     YF                  L                       PP26                  000003
3 LH 0120xxxxF01JAN0001JAN001234567 QEA04000400+0000  REA04010401+0000  M1F                                                     YF                  L                       PP26                  000003
3 LH 0121xxxxF01JAN0001JAN001234567 REA04020402+0000  SEA04030403+0000  M1F                                                     YF                  L                       PP26                  000003
3 LH 0122xxxxF01JAN0001JAN001234567 SEA04040404+0000  TEA04050405+0000  M1F                                                     YF                  L                       PP26                  000003
3 LH 0123xxxxF01JAN0001JAN001234567 TEA04060406+0000  UEA04070407+0000  M1F                                                     YF                  L                       PP26                  000003
3 LH 0124xxxxF01JAN0001JAN001234567 UEA04080408+0000  VEA04090409+0000  M1F                                                     YF                  L                       PP26                  000003
3 LH 0125xxxxF01JAN0001JAN001234567 VEA04100410+0000  WEA04110411+0000  M1F                                                     YF                  L                       PP26                  000003
3 LH 0126xxxxF01JAN0001JAN001234567 WEA04120412+0000  XEA04130413+0000  M1F                                                     YF                  L                       PP26                  000003
3 LH 0127xxxxF01JAN0001JAN001234567 XEA04140414+0000  YEA04150415+0000  M1F                                                     YF                  L                       PP26                  000003
3 LH 0128xxxxF01JAN0001JAN001234567 YEA04160416+0000  ZEA04170417+0000  M1F                                                     YF                  L                       PP26                  000003
3 LH 0129xxxxF01JAN0001JAN001234567 ZEA04180418+0000  AFA04190419+0000  M1F                                                     YF                  L                       PP26                  000003
3 LH 0130xxxxF01JAN0001JAN001234567 AFA04200420+0000  BFA04210421+0000  M1F                                                     YF                  L                       PP26                  000003
3 LH 0131xxxxF01JAN0001JAN001234567 BFA04220422+0000  CFA04230423+0000  M1F                                                     YF                  L                       PP26                  000003
3 LH 0132xxxxF01JAN0001JAN001234567 CFA04240424+0000  DFA04250425+0000  M1F                                                     YF                  L                       PP26                  000003
3 LH 0133xxxxF01JAN0001JAN001234567 DFA04260426+0000  EFA04270427+0000  M1F                                                     YF                  L                       PP26                  000003
3 LH 0134xxxxF01JAN0001JAN001234567 EFA04280428+0000  FFA04290429+0000  M1F                                                     YF                  L                       PP26                  000003
3 LH 0135xxxxF01JAN0001JAN001234567 FFA04300430+0000  GFA04310431+0000  M1F                                                     YF                  L                       PP26                  000003
3 LH 0136xxxxF01JAN0001JAN001234567 GFA04320432+0000  HFA04330433+0000  M1F                                                     YF                  L                       PP26                  000003
3 LH 0137xxxxF01JAN0001JAN001234567 HFA04340434+0000  IFA04350435+0000  M1F                                                     YF                  L                       PP26                  000003
3 LH 0138xxxxF01JAN0001JAN001234567 IFA04360436+0000  JFA04370437+0000  M1F                                                     YF                  L                       PP26                  000003
3 LH 0139xxxxF01JAN0001JAN001234567 JFA04380438+0000  KFA04390439+0000  M1F                                                     YF                  L                       PP26                  000003
3 LH 0140xxxxF01JAN0001JAN001234567 KFA04400440+0000  LFA04410441+0000  M1F                                                     YF                  L                       PP26                  000003
3 LH 0141xxxxF01JAN0001JAN001234567 LFA04420442+0000  MFA04430443+0000  M1F                                                     YF                  L                       PP26                  000003
3 LH 0142xxxxF01JAN0001JAN001234567 MFA04440444+0000  NFA04450445+0000  M1F                                                     YF                  L                       PP26                  000003
3 LH 0143xxxxF01JAN0001JAN001234567 NFA04460446+0000  OFA04470447+0000  M1F                                                     YF                  L                       PP26                  000003
3 LH 0144xxxxF01JAN0001JAN001234567 OFA04480448+0000  PFA04490449+0000  M1F                                                     YF                  L                       PP26                  000003
3 LH 0145xxxxF01JAN0001JAN001234567 PFA04500450+0000  QFA04510451+0000  M1F                                                     YF                  L                       PP26                  000003
3 LH 0146xxxxF01JAN0001JAN001234567 QFA04520452+0000  RFA04530453+0000  M1F                                                     YF                  L                       PP26                  000003
3 LH 0147xxxxF01JAN0001JAN001234567 RFA04540454+0000  SFA04550455+0000  M1F                                                     YF                  L                       PP26                  000003
3 LH 0148xxxxF01JAN0001JAN001234567 SFA04560456+0000  TFA04570457+0000  M1F                                                     YF                  L                       PP26                  000003
3 LH 0149xxxxF01JAN0001JAN001234567 TFA04580458+0000  UFA04590459+0000  M1F                                                     YF                  L                       PP26                  000003
3 LH 0150xxxxF01JAN0001JAN001234567 UFA05000500+0000  VFA05010501+0000  M1F                                                     YF                  L                       PP26                  000003
3 LH 0151xxxxF01JAN0001JAN001234567 VFA05020502+0000  WFA05030503+0000  M1F                                                     YF                  L                       PP26                  000003
3 LH 0152xxxxF01JAN0001JAN001234567 WFA05040504+0000  XFA05050505+0000  M1F                                                     YF                  L                       PP26                  000003
3 LH 0153xxxxF01JAN0001JAN001234567 XFA05060506+0000  YFA05070507+0000  M1F                                                     YF                  L                       PP26                  000003
3 LH 0154xxxxF01JAN0001JAN001234567 YFA05080508+0000  ZFA05090509+0000  M1F                                                     YF                  L                       PP26                  000003
3 LH 0155xxxxF01JAN0001JAN001234567 ZFA05100510+0000  AGA05110511+0000  M1F                                                     YF                  L                       PP26                  000003
3 LH 0156xxxxF01JAN0001JAN001234567 AGA05120512+0000  BGA05130513+0000  M1F                                                     YF                  L                       PP26                  000003
3 LH 0157xxxxF01JAN0001JAN001234567 BGA05140514+0000  CGA05150515+0000  M1F                                                     YF                  L                       PP26                  000003
3 LH 0158xxxxF01JAN0001JAN001234567 CGA05160516+0000  DGA05170517+0000  M1F                                                     YF                  L                       PP26                  000003
3 LH 0159xxxxF01JAN0001JAN001234567 DGA05180518+0000  EGA05190519+0000  M1F                                                     YF                  L                       PP26                  000003
3 LH 0160xxxxF01JAN0001JAN001234567 EGA05200520+0000  FGA05210521+0000  M1F                                                     YF                  L                       PP26                  000003
3 LH 0161xxxxF01JAN0001JAN001234567 FGA05220522+0000  GGA05230523+0000  M1F                                                     YF                  L                       PP26                  000003
3 LH 0162xxxxF01JAN0001JAN001234567 GGA05240524+0000  HGA05250525+0000  M1F                                                     YF                  L                       PP26                  000003
3 LH 0163xxxxF01JAN0001JAN001234567 HGA05260526+0000  IGA05270527+0000  M1F                                                     YF                  L                       PP26                  000003
3 LH 0164xxxxF01JAN0001JAN001234567 IGA05280528+0000  JGA05290529+0000  M1F                                                     YF                  L                       PP26                  000003
3 LH 0165xxxxF01JAN0001JAN001234567 JGA05300530+0000  KGA05310531+0000  M1F                                                     YF                  L                       PP26                  000003
3 LH 0166xxxxF01JAN0001JAN001234567 KGA05320532+0000  LGA05330533+0000  M1F                                                     YF                  L                       PP26                  000003
3 LH 0167xxxxF01JAN0001JAN001234567 LGA05340534+0000  MGA05350535+0000  M1F                                                     YF                  L                       PP26                  000003
3 LH 0168xxxxF01JAN0001JAN001234567 MGA05360536+0000  NGA05370537+0000  M1F                                                     YF                  L                       PP26                  000003
3 LH 0169xxxxF01JAN0001JAN001234567 NGA05380538+0000  OGA05390539+0000  M1F                                                     YF                  L                       PP26                  000003
3 LH 0170xxxxF01JAN0001JAN001234567 OGA05400540+0000  PGA05410541+0000  M1F                                                     YF                  L                       PP26                  000003
3 LH 0171xxxxF01JAN0001JAN001234567 PGA05420542+0000  QGA05430543+0000  M1F                                                     YF                  L                       PP26                  000003
3 LH 0172xxxxF01JAN0001JAN001234567 QGA05440544+0000  RGA05450545+0000  M1F                                                     YF                  L                       PP26                  000003
3 LH 0173xxxxF01JAN0001JAN001234567 RGA05460546+0000  SGA05470547+0000  M1F                                                     YF                  L                       PP26                  000003
3 LH 0174xxxxF01JAN0001JAN001234567 SGA05480548+0000  TGA05490549+0000  M1F                                                     YF                  L                       PP26                  000003
3 LH 0175xxxxF01JAN0001JAN001234567 TGA05500550+0000  UGA05510551+0000  M1F                                                     YF                  L                       PP26                  000003
3 LH 0176xxxxF01JAN0001JAN001234567 UGA05520552+0000  VGA05530553+0000  M1F                                                     YF                  L                       PP26                  000003
3 LH 0177xxxxF01JAN0001JAN001234567 VGA05540554+0000  WGA05550555+0000  M1F                                                     YF                  L                       PP26                  000003
3 LH 0178xxxxF01JAN0001JAN001234567 WGA05560556+0000  XGA05570557+0000  M1F                                                     YF                  L                       PP26                  000003
3 LH 0179xxxxF01JAN0001JAN001234567 XGA05580558+0000  YGA05590559+0000  M1F                                                     YF                  L                       PP26                  000003
3 LH 0180xxxxF01JAN0001JAN001234567 YGA06000600+0000  ZGA06010601+0000  M1F                                                     YF                  L                       PP26                  000003
3 LH 0181xxxxF01JAN0001JAN001234567 ZGA06020602+0000  AHA06030603+0000  M1F                                                     YF                  L                       PP26                  000003
3 LH 0182xxxxF01JAN0001JAN001234567 AHA06040604+0000  BHA06050605+0000  M1F                                                     YF                  L                       PP26                  000003
3 LH 0183xxxxF01JAN0001JAN001234567 BHA06060606+0000  CHA06070607+0000  M1F                                                     YF                  L                       PP26                  000003
3 LH 0184xxxxF01JAN0001JAN001234567 CHA06080608+0000  DHA06090609+0000  M1F                                                     YF                  L                       PP26                  000003
3 LH 0185xxxxF01JAN0001JAN001234567 DHA06100610+0000  EHA06110611+0000  M1F                                                     YF                  L                       PP26                  000003
3 LH 0186xxxxF01JAN0001JAN001234567 EHA06120612+0000  FHA06130613+0000  M1F                                                     YF                  L                       PP26                  000003
3 LH 0187xxxxF01JAN0001JAN001234567 FHA06140614+0000  GHA06150615+0000  M1F                                                     YF                  L                       PP26                  000003
3 LH 0188xxxxF01JAN0001JAN001234567 GHA06160616+0000  HHA06170617+0000  M1F                                                     YF                  L                       PP26                  000003
3 LH 0189xxxxF01JAN0001JAN001234567 HHA06180618+0000  IHA06190619+0000  M1F                                                     YF                  L                       PP26                  000003
3 LH 0190xxxxF01JAN0001JAN001234567 IHA06200620+0000  JHA06210621+0000  M1F                                                     YF                  L                       PP26                  000003
3 LH 0191xxxxF01JAN0001JAN001234567 JHA06220622+0000  KHA06230623+0000  M1F                                                     YF                  L                       PP26                  000003
3 LH 0192xxxxF01JAN0001JAN001234567 KHA06240624+0000  LHA06250625+0000  M1F                                                     YF                  L                       PP26                  000003
3 LH 0193xxxxF01JAN0001JAN001234567 LHA06260626+0000  MHA06270627+0000  M1F                                                     YF                  L                       PP26                  000003
3 LH 0194xxxxF01JAN0001JAN001234567 MHA06280628+0000  NHA06290629+0000  M1F                                                     YF                  L                       PP26                  000003
3 LH 0195xxxxF01JAN0001JAN001234567 NHA06300630+0000  OHA06310631+0000  M1F                                                     YF                  L                       PP26                  000003
3 LH 0196xxxxF01JAN0001JAN001234567 OHA06320632+0000  PHA06330633+0000  M1F                                                     YF                  L                       PP26                  000003
3 LH 0197xxxxF01JAN0001JAN001234567 PHA06340634+0000  QHA06350635+0000  M1F                                                     YF                  L                       PP26                  000003
3 LH 0198xxxxF01JAN0001JAN001234567 QHA06360636+0000  RHA06370637+0000  M1F                                                     YF                  L                       PP26                  000003
3 LH 0199xxxxF01JAN0001JAN001234567 RHA06380638+0000  SHA06390639+0000  M1F                                                     YF                  L                       PP26                  000003
3 LH 0200xxxxF01JAN0001JAN001234567 SHA06400640+0000  THA06410641+0000  M1F                                                     YF                  L                       PP26                  000003
3 LH 0201xxxxF01JAN0001JAN001234567 THA06420642+0000  UHA06430643+0000  M1F                                                     YF                  L                       PP26                  000003
3 LH 0202xxxxF01JAN0001JAN001234567 UHA06440644+0000  VHA06450645+0000  M1F                                                     YF                  L                       PP26                  000003
3 LH 0203xxxxF01JAN0001JAN001234567 VHA06460646+0000  WHA06470647+0000  M1F                                                     YF                  L                       PP26                  000003
3 LH 0204xxxxF01JAN0001JAN001234567 WHA06480648+0000  XHA06490649+0000  M1F                                                     YF                  L                       PP26                  000003
3 LH 0205xxxxF01JAN0001JAN001234567 XHA06500650+0000  YHA06510651+0000  M1F                                                     YF                  L                       PP26                  000003
3 LH 0206xxxxF01JAN0001JAN001234567 YHA06520652+0000  ZHA06530653+0000  M1F                                                     YF                  L                       PP26                  000003
3 LH 0207xxxxF01JAN0001JAN001234567 ZHA06540654+0000  AIA06550655+0000  M1F                                                     YF                  L                       PP26                  000003
3 LH 0208xxxxF01JAN0001JAN001234567 AIA06560656+0000  BIA06570657+0000  M1F                                                     YF                  L                       PP26                  000003
3 LH 0209xxxxF01JAN0001JAN001234567 BIA06580658+0000  CIA06590659+0000  M1F                                                     YF                  L                       PP26                  000003
3 LH 0210xxxxF01JAN0001JAN001234567 CIA07000700+0000  DIA07010701+0000  M1F                                                     YF                  L                       PP26                  000003
3 LH 0211xxxxF01JAN0001JAN001234567 DIA07020702+0000  EIA07030703+0000  M1F                                                     YF                  L                       PP26                  000003
3 LH 0212xxxxF01JAN0001JAN001234567 EIA07040704+0000  FIA07050705+0000  M1F                                                     YF                  L                       PP26                  000003
3 LH 0213xxxxF01JAN0001JAN001234567 FIA07060706+0000  GIA07070707+0000  M1F                                                     YF                  L                       PP26                  000003
3 LH 0214xxxxF01JAN0001JAN001234567 GIA07080708+0000  HIA07090709+0000  M1F                                                     YF                  L                       PP26                  000003
3 LH 0215xxxxF01JAN0001JAN001234567 HIA07100710+0000  IIA07110711+0000  M1F                                                     YF                  L                       PP26                  000003
3 LH 0216xxxxF01JAN0001JAN001234567 IIA07120712+0000  JIA07130713+0000  M1F                                                     YF                  L                       PP26                  000003
3 LH 0217xxxxF01JAN0001JAN001234567 JIA07140714+0000  KIA07150715+0000  M1F                                                     YF                  L                       PP26                  000003
3 LH 0218xxxxF01JAN0001JAN001234567 KIA07160716+0000  LIA07170717+0000  M1F                                                     YF                  L                       PP26                  000003
3 LH 0219xxxxF01JAN0001JAN001234567 LIA07180718+0000  MIA07190719+0000  M1F                                                     YF                  L                       PP26                  000003
3 LH 0220xxxxF01JAN0001JAN001234567 MIA07200720+0000  NIA07210721+0000  M1F                                                     YF                  L                       PP26                  000003
3 LH 0221xxxxF01JAN0001JAN001234567 NIA07220722+0000  OIA07230723+0000  M1F                                                     YF                  L                       PP26                  000003
3 LH 0222xxxxF01JAN0001JAN001234567 OIA07240724+0000  PIA07250725+0000  M1F                                                     YF                  L                       PP26                  000003
3 LH 0223xxxxF01JAN0001JAN001234567 PIA07260726+0000  QIA07270727+0000  M1F                                                     YF                  L                       PP26                  000003
3 LH 0224xxxxF01JAN0001JAN001234567 QIA07280728+0000  RIA07290729+0000  M1F                                                     YF                  L                       PP26                  000003
3 LH 0225xxxxF01JAN0001JAN001234567 RIA07300730+0000  SIA07310731+0000  M1F                                                     YF                  L                       PP26                  000003
3 LH 0226xxxxF01JAN0001JAN001234567 SIA07320732+0000  TIA07330733+0000  M1F                                                     YF                  L                       PP26                  000003
3 LH 0227xxxxF01JAN0001JAN001234567 TIA07340734+0000  UIA07350735+0000  M1F                                                     YF                  L                       PP26                  000003
3 LH 0228xxxxF01JAN0001JAN001234567 UIA07360736+0000  VIA07370737+0000  M1F                                                     YF                  L                       PP26                  000003
3 LH 0229xxxxF01JAN0001JAN001234567 VIA07380738+0000  WIA07390739+0000  M1F                                                     YF                  L                       PP26                  000003
3 LH 0230xxxxF01JAN0001JAN001234567 WIA07400740+0000  XIA07410741+0000  M1F                                                     YF                  L                       PP26                  000003
3 LH 0231xxxxF01JAN0001JAN001234567 XIA07420742+0000  YIA07430743+0000  M1F                                                     YF                  L                       PP26                  000003
3 LH 0232xxxxF01JAN0001JAN001234567 YIA07440744+0000  ZIA07450745+0000  M1F                                                     YF                  L                       PP26                  000003
3 LH 0233xxxxF01JAN0001JAN001234567 ZIA07460746+0000  AJA07470747+0000  M1F                                                     YF                  L                       PP26                  000003
3 LH 0234xxxxF01JAN0001JAN001234567 AJA07480748+0000  BJA07490749+0000  M1F                                                     YF                  L                       PP26                  000003
3 LH 0235xxxxF01JAN0001JAN001234567 BJA07500750+0000  CJA07510751+0000  M1F                                                     YF                  L                       PP26                  000003
3 LH 0236xxxxF01JAN0001JAN001234567 CJA07520752+0000  DJA07530753+0000  M1F                                                     YF                  L                       PP26                  000003
3 LH 0237xxxxF01JAN0001JAN001234567 DJA07540754+0000  EJA07550755+0000  M1F                                                     YF                  L                       PP26                  000003
3 LH 0238xxxxF01JAN0001JAN001234567 EJA07560756+0000  FJA07570757+0000  M1F                                                     YF                  L                       PP26                  000003
3 LH 0239xxxxF01JAN0001JAN001234567 FJA07580758+0000  GJA07590759+0000  M1F                                                     YF                  L                       PP26                  000003
3 LH 0240xxxxF01JAN0001JAN001234567 GJA08000800+0000  HJA08010801+0000  M1F                                                     YF                  L                       PP26                  000003
3 LH 0241xxxxF01JAN0001JAN001234567 HJA08020802+0000  IJA08030803+0000  M1F                                                     YF                  L                       PP26                  000003
3 LH 0242xxxxF01JAN0001JAN001234567 IJA08040804+0000  JJA08050805+0000  M1F                                                     YF                  L                       PP26                  000003
3 LH 0243xxxxF01JAN0001JAN001234567 JJA08060806+0000  KJA08070807+0000  M1F                                                     YF                  L                       PP26                  000003
3 LH 0244xxxxF01JAN0001JAN001234567 KJA08080808+0000  LJA08090809+0000  M1F                                                     YF                  L                       PP26                  000003
3 LH 0245xxxxF01JAN0001JAN001234567 LJA08100810+0000  MJA08110811+0000  M1F                                                     YF                  L                       PP26                  000003
3 LH 0246xxxxF01JAN0001JAN001234567 MJA08120812+0000  NJA08130813+0000  M1F                                                     YF                  L                       PP26                  000003
3 LH 0247xxxxF01JAN0001JAN001234567 NJA08140814+0000  OJA08150815+0000  M1F                                                     YF                  L                       PP26                  000003
3 LH 0248xxxxF01JAN0001JAN001234567 OJA08160816+0000  PJA08170817+0000  M1F                                                     YF                  L                       PP26                  000003
3 LH 0249xxxxF01JAN0001JAN001234567 PJA08180818+0000  QJA08190819+0000  M1F                                                     YF                  L                       PP26                  000003
3 LH 0250xxxxF01JAN0001JAN001234567 QJA08200820+0000  RJA08210821+0000  M1F                                                     YF                  L                       PP26                  000003
3 LH 0251xxxxF01JAN0001JAN001234567 RJA08220822+0000  SJA08230823+0000  M1F                                                     YF                  L                       PP26                  000003
3 LH 0252xxxxF01JAN0001JAN001234567 SJA08240824+0000  TJA08250825+0000  M1F                                                     YF                  L                       PP26                  000003
3 LH 0253xxxxF01JAN0001JAN001234567 TJA08260826+0000  UJA08270827+0000  M1F                                                     YF                  L                       PP26                  000003
3 LH 0254xxxxF01JAN0001JAN001234567 UJA08280828+0000  VJA08290829+0000  M1F                                                     YF                  L                       PP26                  000003
3 LH 0255xxxxF01JAN0001JAN001234567 VJA08300830+0000  WJA08310831+0000  M1F                                                     YF                  L                       PP26                  000003
3 LH 0256xxxxF01JAN0001JAN001234567 WJA08320832+0000  XJA08330833+0000  M1F                                                     YF                  L                       PP26                  000003
3 LH 0257xxxxF01JAN0001JAN001234567 XJA08340834+0000  YJA08350835+0000  M1F                                                     YF                  L                       PP26                  000003
3 LH 0258xxxxF01JAN0001JAN001234567 YJA08360836+0000  ZJA08370837+0000  M1F                                                     YF                  L                       PP26                  000003
3 LH 0259xxxxF01JAN0001JAN001234567 ZJA08380838+0000  AKA08390839+0000  M1F                                                     YF                  L                       PP26                  000003
3 LH 0260xxxxF01JAN0001JAN001234567 AKA08400840+0000  BKA08410841+0000  M1F                                                     YF                  L                       PP26                  000003
3 LH 0261xxxxF01JAN0001JAN001234567 BKA08420842+0000  CKA08430843+0000  M1F                                                     YF                  L                       PP26                  000003
3 LH 0262xxxxF01JAN0001JAN001234567 CKA08440844+0000  DKA08450845+0000  M1F                                                     YF                  L                       PP26                  000003
3 LH 0263xxxxF01JAN0001JAN001234567 DKA08460846+0000  EKA08470847+0000  M1F                                                     YF                  L                       PP26                  000003
3 LH 0264xxxxF01JAN0001JAN001234567 EKA08480848+0000  FKA08490849+0000  M1F                                                     YF                  L                       PP26                  000003
3 LH 0265xxxxF01JAN0001JAN001234567 FKA08500850+0000  GKA08510851+0000  M1F                                                     YF                  L                       PP26                  000003
3 LH 0266xxxxF01JAN0001JAN001234567 GKA08520852+0000  HKA08530853+0000  M1F                                                     YF                  L                       PP26                  000003
3 LH 0267xxxxF01JAN0001JAN001234567 HKA08540854+0000  IKA08550855+0000  M1F                                                     YF                  L                       PP26                  000003
3 LH 0268xxxxF01JAN0001JAN001234567 IKA08560856+0000  JKA08570857+0000  M1F                                                     YF                  L                       PP26                  000003
3 LH 0269xxxxF01JAN0001JAN001234567 JKA08580858+0000  KKA08590859+0000  M1F                                                     YF                  L                       PP26                  000003
3 LH 0270xxxxF01JAN0001JAN001234567 KKA09000900+0000  LKA09010901+0000  M1F                                                     YF                  L                       PP26                  000003
3 LH 0271xxxxF01JAN0001JAN001234567 LKA09020902+0000  MKA09030903+0000  M1F                                                     YF                  L                       PP26                  000003
3 LH 0272xxxxF01JAN0001JAN001234567 MKA09040904+0000  NKA09050905+0000  M1F                                                     YF                  L                       PP26                  000003
3 LH 0273xxxxF01JAN0001JAN001234567 NKA09060906+0000  OKA09070907+0000  M1F                                                     YF                  L                       PP26                  000003
3 LH 0274xxxxF01JAN0001JAN001234567 OKA09080908+0000  PKA09090909+0000  M1F                                                     YF                  L                       PP26                  000003
3 LH 0275xxxxF01JAN0001JAN001234567 PKA09100910+0000  QKA09110911+0000  M1F                                                     YF                  L                       PP26                  000003
3 LH 0276xxxxF01JAN0001JAN001234567 QKA09120912+0000  RKA09130913+0000  M1F                                                     YF                  L                       PP26                  000003
3 LH 0277xxxxF01JAN0001JAN001234567 RKA09140914+0000  SKA09150915+0000  M1F                                                     YF                  L                       PP26                  000003
3 LH 0278xxxxF01JAN0001JAN001234567 SKA09160916+0000  TKA09170917+0000  M1F                                                     YF                  L                       PP26                  000003
3 LH 0279xxxxF01JAN0001JAN001234567 TKA09180918+0000  UKA09190919+0000  M1F                                                     YF                  L                       PP26                  000003
3 LH 0280xxxxF01JAN0001JAN001234567 UKA09200920+0000  VKA09210921+0000  M1F                                                     YF                  L                       PP26                  000003
3 LH 0281xxxxF01JAN0001JAN001234567 VKA09220922+0000  WKA09230923+0000  M1F                                                     YF                  L                       PP26                  000003
3 LH 0282xxxxF01JAN0001JAN001234567 WKA09240924+0000  XKA09250925+0000  M1F                                                     YF                  L                       PP26                  000003
3 LH 0283xxxxF01JAN0001JAN001234567 XKA09260926+0000  YKA09270927+0000  M1F                                                     YF                  L                       PP26                  000003
3 LH 0284xxxxF01JAN0001JAN001234567 YKA09280928+0000  ZKA09290929+0000  M1F                                                     YF                  L                       PP26                  000003
3 LH 0285xxxxF01JAN0001JAN001234567 ZKA09300930+0000  ALA09310931+0000  M1F                                                     YF                  L                       PP26                  000003
3 LH 0286xxxxF01JAN0001JAN001234567 ALA09320932+0000  BLA09330933+0000  M1F                                                     YF                  L                       PP26                  000003
3 LH 0287xxxxF01JAN0001JAN001234567 BLA09340934+0000  CLA09350935+0000  M1F                                                     YF                  L                       PP26                  000003
3 LH 0288xxxxF01JAN0001JAN001234567 CLA09360936+0000  DLA09370937+0000  M1F                                                     YF                  L                       PP26                  000003
3 LH 0289xxxxF01JAN0001JAN001234567 DLA09380938+0000  ELA09390939+0000  M1F                                                     YF                  L                       PP26                  000003
3 LH 0290xxxxF01JAN0001JAN001234567 ELA09400940+0000  FLA09410941+0000  M1F                                                     YF                  L                       PP26                  000003
3 LH 0291xxxxF01JAN0001JAN001234567 FLA09420942+0000  GLA09430943+0000  M1F                                                     YF                  L                       PP26                  000003
3 LH 0292xxxxF01JAN0001JAN001234567 GLA09440944+0000  HLA09450945+0000  M1F                                                     YF                  L                       PP26                  000003
3 LH 0293xxxxF01JAN0001JAN001234567 HLA09460946+0000  ILA09470947+0000  M1F                                                     YF                  L                       PP26                  000003
3 LH 0294xxxxF01JAN0001JAN001234567 ILA09480948+0000  JLA09490949+0000  M1F                                                     YF                  L                       PP26                  000003
3 LH 0295xxxxF01JAN0001JAN001234567 JLA09500950+0000  KLA09510951+0000  M1F                                                     YF                  L                       PP26                  000003
3 LH 0296xxxxF01JAN0001JAN001234567 KLA09520952+0000  LLA09530953+0000  M1F                                                     YF                  L                       PP26                  000003
3 LH 0297xxxxF01JAN0001JAN001234567 LLA09540954+0000  MLA09550955+0000  M1F                                                     YF                  L                       PP26                  000003
3 LH 0298xxxxF01JAN0001JAN001234567 MLA09560956+0000  NLA09570957+0000  M1F                                                     YF                  L                       PP26                  000003
3 LH 0299xxxxF01JAN0001JAN001234567 NLA09580958+0000  OLA09590959+0000  M1F                                                     YF                  L                       PP26                  000003
3 LH 0300xxxxF01JAN0001JAN001234567 OLA10001000+0000  PLA10011001+0000  M1F                                                     YF                  L                       PP26                  000003
3 LH 0301xxxxF01JAN0001JAN001234567 PLA10021002+0000  QLA10031003+0000  M1F                                                     YF                  L                       PP26                  000003
3 LH 0302xxxxF01JAN0001JAN001234567 QLA10041004+0000  RLA10051005+0000  M1F                                                     YF                  L                       PP26                  000003
3 LH 0303xxxxF01JAN0001JAN001234567 RLA10061006+0000  SLA10071007+0000  M1F                                                     YF                  L                       PP26                  000003
3 LH 0304xxxxF01JAN0001JAN001234567 SLA10081008+0000  TLA10091009+0000  M1F                                                     YF                  L                       PP26                  000003
3 LH 0305xxxxF01JAN0001JAN001234567 TLA10101010+0000  ULA10111011+0000  M1F                                                     YF                  L                       PP26                  000003
3 LH 0306xxxxF01JAN0001JAN001234567 ULA10121012+0000  VLA10131013+0000  M1F                                                     YF                  L                       PP26                  000003
3 LH 0307xxxxF01JAN0001JAN001234567 VLA10141014+0000  WLA10151015+0000  M1F                                                     YF                  L                       PP26                  000003
3 LH 0308xxxxF01JAN0001JAN001234567 WLA10161016+0000  XLA10171017+0000  M1F                                                     YF                  L                       PP26                  000003
3 LH 0309xxxxF01JAN0001JAN001234567 XLA10181018+0000  YLA10191019+0000  M1F                                                     YF                  L                       PP26                  000003
3 LH 0310xxxxF01JAN0001JAN001234567 YLA10201020+0000  ZLA10211021+0000  M1F                                                     YF                  L                       PP26                  000003
3 LH 0311xxxxF01JAN0001JAN001234567 ZLA10221022+0000  AMA10231023+0000  M1F                                                     YF                  L                       PP26                  000003
3 LH 0312xxxxF01JAN0001JAN001234567 AMA10241024+0000  BMA10251025+0000  M1F                                                     YF                  L                       PP26                  000003
3 LH 0313xxxxF01JAN0001JAN001234567 BMA10261026+0000  CMA10271027+0000  M1F                                                     YF                  L                       PP26                  000003
3 LH 0314xxxxF01JAN0001JAN001234567 CMA10281028+0000  DMA10291029+0000  M1F                                                     YF                  L                       PP26                  000003
3 LH 0315xxxxF01JAN0001JAN001234567 DMA10301030+0000  EMA10311031+0000  M1F                                                     YF                  L                       PP26                  000003
3 LH 0316xxxxF01JAN0001JAN001234567 EMA10321032+0000  FMA10331033+0000  M1F                                                     YF                  L                       PP26                  000003
3 LH 0317xxxxF01JAN0001JAN001234567 FMA10341034+0000  GMA10351035+0000  M1F                                                     YF                  L                       PP26                  000003
3 LH 0318xxxxF01JAN0001JAN001234567 GMA10361036+0000  HMA10371037+0000  M1F                                                     YF                  L                       PP26                  000003
3 LH 0319xxxxF01JAN0001JAN001234567 HMA10381038+0000  IMA10391039+0000  M1F                                                     YF                  L                       PP26                  000003
3 LH 0320xxxxF01JAN0001JAN001234567 IMA10401040+0000  JMA10411041+0000  M1F                                                     YF                  L                       PP26                  000003
3 LH 0321xxxxF01JAN0001JAN001234567 JMA10421042+0000  KMA10431043+0000  M1F                                                     YF                  L                       PP26                  000003
3 LH 0322xxxxF01JAN0001JAN001234567 KMA10441044+0000  LMA10451045+0000  M1F                                                     YF                  L                       PP26                  000003
3 LH 0323xxxxF01JAN0001JAN001234567 LMA10461046+0000  MMA10471047+0000  M1F                                                     YF                  L                       PP26                  000003
3 LH 0324xxxxF01JAN0001JAN001234567 MMA10481048+0000  NMA10491049+0000  M1F                                                     YF                  L                       PP26                  000003
3 LH 0325xxxxF01JAN0001JAN001234567 NMA10501050+0000  OMA10511051+0000  M1F                                                     YF                  L                       PP26                  000003
3 LH 0326xxxxF01JAN0001JAN001234567 OMA10521052+0000  PMA10531053+0000  M1F                                                     YF                  L                       PP26                  000003
3 LH 0327xxxxF01JAN0001JAN001234567 PMA10541054+0000  QMA10551055+0000  M1F                                                     YF                  L                       PP26                  000003
3 LH 0328xxxxF01JAN0001JAN001234567 QMA10561056+0000  RMA10571057+0000  M1F                                                     YF                  L                       PP26                  000003
3 LH 0329xxxxF01JAN0001JAN001234567 RMA10581058+0000  SMA10591059+0000  M1F                                                     YF                  L                       PP26                  000003
3 LH 0330xxxxF01JAN0001JAN001234567 SMA11001100+0000  TMA11011101+0000  M1F                                                     YF                  L                       PP26                  000003
3 LH 0331xxxxF01JAN0001JAN001234567 TMA11021102+0000  UMA11031103+0000  M1F                                                     YF                  L                       PP26                  000003
3 LH 0332xxxxF01JAN0001JAN001234567 UMA11041104+0000  VMA11051105+0000  M1F                                                     YF                  L                       PP26                  000003
3 LH 0333xxxxF01JAN0001JAN001234567 VMA11061106+0000  WMA11071107+0000  M1F                                                     YF                  L                       PP26                  000003
3 LH 0334xxxxF01JAN0001JAN001234567 WMA11081108+0000  XMA11091109+0000  M1F                                                     YF                  L                       PP26                  000003
3 LH 0335xxxxF01JAN0001JAN001234567 XMA11101110+0000  YMA11111111+0000  M1F                                                     YF                  L                       PP26                  000003
3 LH 0336xxxxF01JAN0001JAN001234567 YMA11121112+0000  ZMA11131113+0000  M1F                                                     YF                  L                       PP26                  000003
3 LH 0337xxxxF01JAN0001JAN001234567 ZMA11141114+0000  ANA11151115+0000  M1F                                                     YF                  L                       PP26                  000003
3 LH 0338xxxxF01JAN0001JAN001234567 ANA11161116+0000  BNA11171117+0000  M1F                                                     YF                  L                       PP26                  000003
3 LH 0339xxxxF01JAN0001JAN001234567 BNA11181118+0000  CNA11191119+0000  M1F                                                     YF                  L                       PP26                  000003
3 LH 0340xxxxF01JAN0001JAN001234567 CNA11201120+0000  DNA11211121+0000  M1F                                                     YF                  L                       PP26                  000003
3 LH 0341xxxxF01JAN0001JAN001234567 DNA11221122+0000  ENA11231123+0000  M1F                                                     YF                  L                       PP26                  000003
3 LH 0342xxxxF01JAN0001JAN001234567 ENA11241124+0000  FNA11251125+0000  M1F                                                     YF                  L                       PP26                  000003
3 LH 0343xxxxF01JAN0001JAN001234567 FNA11261126+0000  GNA11271127+0000  M1F                                                     YF                  L                       PP26                  000003
3 LH 0344xxxxF01JAN0001JAN001234567 GNA11281128+0000  HNA11291129+0000  M1F                                                     YF                  L                       PP26                  000003
3 LH 0345xxxxF01JAN0001JAN001234567 HNA11301130+0000  INA11311131+0000  M1F                                                     YF                  L                       PP26                  000003
3 LH 0346xxxxF01JAN0001JAN001234567 INA11321132+0000  JNA11331133+0000  M1F                                                     YF                  L                       PP26                  000003
3 LH 0347xxxxF01JAN0001JAN001234567 JNA11341134+0000  KNA11351135+0000  M1F                                                     YF                  L                       PP26                  000003
3 LH 0348xxxxF01JAN0001JAN001234567 KNA11361136+0000  LNA11371137+0000  M1F                                                     YF                  L                       PP26                  000003
3 LH 0349xxxxF01JAN0001JAN001234567 LNA11381138+0000  MNA11391139+0000  M1F                                                     YF                  L                       PP26                  000003
3 LH 0350xxxxF01JAN0001JAN001234567 MNA11401140+0000  NNA11411141+0000  M1F                                                     YF                  L                       PP26                  000003
3 LH 0351xxxxF01JAN0001JAN001234567 NNA11421142+0000  ONA11431143+0000  M1F                                                     YF                  L                       PP26                  000003
3 LH 0352xxxxF01JAN0001JAN001234567 ONA11441144+0000  PNA11451145+0000  M1F                                                     YF                  L                       PP26                  000003
3 LH 0353xxxxF01JAN0001JAN001234567 PNA11461146+0000  QNA11471147+0000  M1F                                                     YF                  L                       PP26                  000003
3 LH 0354xxxxF01JAN0001JAN001234567 QNA11481148+0000  RNA11491149+0000  M1F                                                     YF                  L                       PP26                  000003
3 LH 0355xxxxF01JAN0001JAN001234567 RNA11501150+0000  SNA11511151+0000  M1F                                                     YF                  L                       PP26                  000003
3 LH 0356xxxxF01JAN0001JAN001234567 SNA11521152+0000  TNA11531153+0000  M1F                                                     YF                  L                       PP26                  000003
3 LH 0357xxxxF01JAN0001JAN001234567 TNA11541154+0000  UNA11551155+0000  M1F                                                     YF                  L                       PP26                  000003
3 LH 0358xxxxF01JAN0001JAN001234567 UNA11561156+0000  VNA11571157+0000  M1F                                                     YF                  L                       PP26                  000003
3 LH 0359xxxxF01JAN0001JAN001234567 VNA11581158+0000  WNA11591159+0000  M1F                                                     YF                  L                       PP26                  000003
3 LH 0360xxxxF01JAN0001JAN001234567 WNA12001200+0000  XNA12011201+0000  M1F                                                     YF                  L                       PP26                  000003
3 LH 0361xxxxF01JAN0001JAN001234567 XNA12021202+0000  YNA12031203+0000  M1F                                                     YF                  L                       PP26                  000003
3 LH 0362xxxxF01JAN0001JAN001234567 YNA12041204+0000  ZNA12051205+0000  M1F                                                     YF                  L                       PP26                  000003
3 LH 0363xxxxF01JAN0001JAN001234567 ZNA12061206+0000  AOA12071207+0000  M1F                                                     YF                  L                       PP26                  000003
3 LH 0364xxxxF01JAN0001JAN001234567 AOA12081208+0000  BOA12091209+0000  M1F                                                     YF                  L                       PP26                  000003
3 LH 0365xxxxF01JAN0001JAN001234567 BOA12101210+0000  COA12111211+0000  M1F                                                     YF                  L                       PP26                  000003
3 LH 0366xxxxF01JAN0001JAN001234567 COA12121212+0000  DOA12131213+0000  M1F                                                     YF                  L                       PP26                  000003
3 LH 0367xxxxF01JAN0001JAN001234567 DOA12141214+0000  EOA12151215+0000  M1F                                                     YF                  L                       PP26                  000003
3 LH 0368xxxxF01JAN0001JAN001234567 EOA12161216+0000  FOA12171217+0000  M1F                                                     YF                  L                       PP26                  000003
3 LH 0369xxxxF01JAN0001JAN001234567 FOA12181218+0000  GOA12191219+0000  M1F                                                     YF                  L                       PP26                  000003
3 LH 0370xxxxF01JAN0001JAN001234567 GOA12201220+0000  HOA12211221+0000  M1F                                                     YF                  L                       PP26                  000003
3 LH 0371xxxxF01JAN0001JAN001234567 HOA12221222+0000  IOA12231223+0000  M1F                                                     YF                  L                       PP26                  000003
3 LH 0372xxxxF01JAN0001JAN001234567 IOA12241224+0000  JOA12251225+0000  M1F                                                     YF                  L                       PP26                  000003
3 LH 0373xxxxF01JAN0001JAN001234567 JOA12261226+0000  KOA12271227+0000  M1F                                                     YF                  L                       PP26                  000003
3 LH 0374xxxxF01JAN0001JAN001234567 KOA12281228+0000  LOA12291229+0000  M1F                                                     YF                  L                       PP26                  000003
3 LH 0375xxxxF01JAN0001JAN001234567 LOA12301230+0000  MOA12311231+0000  M1F                                                     YF                  L                       PP26                  000003
3 LH 0376xxxxF01JAN0001JAN001234567 MOA12321232+0000  NOA12331233+0000  M1F                                                     YF                  L                       PP26                  000003
3 LH 0377xxxxF01JAN0001JAN001234567 NOA12341234+0000  OOA12351235+0000  M1F                                                     YF                  L                       PP26                  000003
3 LH 0378xxxxF01JAN0001JAN001234567 OOA12361236+0000  POA12371237+0000  M1F                                                     YF                  L                       PP26                  000003
3 LH 0379xxxxF01JAN0001JAN001234567 POA12381238+0000  QOA12391239+0000  M1F                                                     YF                  L                       PP26                  000003
3 LH 0380xxxxF01JAN0001JAN001234567 QOA12401240+0000  ROA12411241+0000  M1F                                                     YF                  L                       PP26                  000003
3 LH 0381xxxxF01JAN0001JAN001234567 ROA12421242+0000  SOA12431243+0000  M1F                                                     YF                  L                       PP26                  000003
3 LH 0382xxxxF01JAN0001JAN001234567 SOA12441244+0000  TOA12451245+0000  M1F                                                     YF                  L                       PP26                  000003
3 LH 0383xxxxF01JAN0001JAN001234567 TOA12461246+0000  UOA12471247+0000  M1F                                                     YF                  L                       PP26                  000003
3 LH 0384xxxxF01JAN0001JAN001234567 UOA12481248+0000  VOA12491249+0000  M1F                                                     YF                  L                       PP26                  000003
3 LH 0385xxxxF01JAN0001JAN001234567 VOA12501250+0000  WOA12511251+0000  M1F                                                     YF                  L                       PP26                  000003
3 LH 0386xxxxF01JAN0001JAN001234567 WOA12521252+0000  XOA12531253+0000  M1F                                                     YF                  L                       PP26                  000003
3 LH 0387xxxxF01JAN0001JAN001234567 XOA12541254+0000  YOA12551255+0000  M1F                                                     YF                  L                       PP26                  000003
3 LH 0388xxxxF01JAN0001JAN001234567 YOA12561256+0000  ZOA12571257+0000  M1F                                                     YF                  L                       PP26                  000003
3 LH 0389xxxxF01JAN0001JAN001234567 ZOA12581258+0000  APA12591259+0000  M1F                                                     YF                  L                       PP26                  000003
3 LH 0390xxxxF01JAN0001JAN001234567 APA13001300+0000  BPA13011301+0000  M1F                                                     YF                  L                       PP26                  000003
3 LH 0391xxxxF01JAN0001JAN001234567 BPA13021302+0000  CPA13031303+0000  M1F                                                     YF                  L                       PP26                  000003
3 LH 0392xxxxF01JAN0001JAN001234567 CPA13041304+0000  DPA13051305+0000  M1F                                                     YF                  L                       PP26                  000003
3 LH 0393xxxxF01JAN0001JAN001234567 DPA13061306+0000  EPA13071307+0000  M1F                                                     YF                  L                       PP26                  000003
3 LH 0394xxxxF01JAN0001JAN001234567 EPA13081308+0000  FPA13091309+0000  M1F                                                     YF                  L                       PP26                  000003
3 LH 0395xxxxF01JAN0001JAN001234567 FPA13101310+0000  GPA13111311+0000  M1F                                                     YF                  L                       PP26                  000003
3 LH 0396xxxxF01JAN0001JAN001234567 GPA13121312+0000  HPA13131313+0000  M1F                                                     YF                  L                       PP26                  000003
3 LH 0397xxxxF01JAN0001JAN001234567 HPA13141314+0000  IPA13151315+0000  M1F                                                     YF                  L                       PP26                  000003
3 LH 0398xxxxF01JAN0001JAN001234567 IPA13161316+0000  JPA13171317+0000  M1F                                                     YF                  L                       PP26                  000003
3 LH 0399xxxxF01JAN0001JAN001234567 JPA13181318+0000  KPA13191319+0000  M1F                                                     YF                  L                       PP26                  000003
3 LH 0400xxxxF01JAN0001JAN001234567 KPA13201320+0000  LPA13211321+0000  M1F                                                     YF                  L                       PP26                  000003
3 LH 0401xxxxF01JAN0001JAN001234567 LPA13221322+0000  MPA13231323+0000  M1F                                                     YF                  L                       PP26                  000003
3 LH 0402xxxxF01JAN0001JAN001234567 MPA13241324+0000  NPA13251325+0000  M1F                                                     YF                  L                       PP26                  000003
3 LH 0403xxxxF01JAN0001JAN001234567 NPA13261326+0000  OPA13271327+0000  M1F                                                     YF                  L                       PP26                  000003
3 LH 0404xxxxF01JAN0001JAN001234567 OPA13281328+0000  PPA13291329+0000  M1F                                                     YF                  L                       PP26                  000003
3 LH 0405xxxxF01JAN0001JAN001234567 PPA13301330+0000  QPA13311331+0000  M1F                                                     YF                  L                       PP26                  000003
3 LH 0406xxxxF01JAN0001JAN001234567 QPA13321332+0000  RPA13331333+0000  M1F                                                     YF                  L                       PP26                  000003
3 LH 0407xxxxF01JAN0001JAN001234567 RPA13341334+0000  SPA13351335+0000  M1F                                                     YF                  L                       PP26                  000003
3 LH 0408xxxxF01JAN0001JAN001234567 SPA13361336+0000  TPA13371337+0000  M1F                                                     YF                  L                       PP26                  000003
3 LH 0409xxxxF01JAN0001JAN001234567 TPA13381338+0000  UPA13391339+0000  M1F                                                     YF                  L                       PP26                  000003
3 LH 0410xxxxF01JAN0001JAN001234567 UPA13401340+0000  VPA13411341+0000  M1F                                                     YF                  L                       PP26                  000003
3 LH 0411xxxxF01JAN0001JAN001234567 VPA13421342+0000  WPA13431343+0000  M1F                                                     YF                  L                       PP26                  000003
3 LH 0412xxxxF01JAN0001JAN001234567 WPA13441344+0000  XPA13451345+0000  M1F                                                     YF                  L                       PP26                  000003
3 LH 0413xxxxF01JAN0001JAN001234567 XPA13461346+0000  YPA13471347+0000  M1F                                                     YF                  L                       PP26                  000003
3 LH 0414xxxxF01JAN0001JAN001234567 YPA13481348+0000  ZPA13491349+0000  M1F                                                     YF                  L                       PP26                  000003
3 LH 0415xxxxF01JAN0001JAN001234567 ZPA13501350+0000  AQA13511351+0000  M1F                                                     YF                  L                       PP26                  000003
3 LH 0416xxxxF01JAN0001JAN001234567 AQA13521352+0000  BQA13531353+0000  M1F                                                     YF                  L                       PP26                  000003
3 LH 0417xxxxF01JAN0001JAN001234567 BQA13541354+0000  CQA13551355+0000  M1F                                                     YF                  L                       PP26                  000003
3 LH 0418xxxxF01JAN0001JAN001234567 CQA13561356+0000  DQA13571357+0000  M1F                                                     YF                  L                       PP26                  000003
3 LH 0419xxxxF01JAN0001JAN001234567 DQA13581358+0000  EQA13591359+0000  M1F                                                     YF                  L                       PP26                  000003
3 LH 0420xxxxF01JAN0001JAN001234567 EQA14001400+0000  FQA14011401+0000  M1F                                                     YF                  L                       PP26                  000003
3 LH 0421xxxxF01JAN0001JAN001234567 FQA14021402+0000  GQA14031403+0000  M1F                                                     YF                  L                       PP26                  000003
3 LH 0422xxxxF01JAN0001JAN001234567 GQA14041404+0000  HQA14051405+0000  M1F                                                     YF                  L                       PP26                  000003
3 LH 0423xxxxF01JAN0001JAN001234567 HQA14061406+0000  IQA14071407+0000  M1F                                                     YF                  L                       PP26                  000003
3 LH 0424xxxxF01JAN0001JAN001234567 IQA14081408+0000  JQA14091409+0000  M1F                                                     YF                  L                       PP26                  000003
3 LH 0425xxxxF01JAN0001JAN001234567 JQA14101410+0000  KQA14111411+0000  M1F                                                     YF                  L                       PP26                  000003
3 LH 0426xxxxF01JAN0001JAN001234567 KQA14121412+0000  LQA14131413+0000  M1F                                                     YF                  L                       PP26                  000003
3 LH 0427xxxxF01JAN0001JAN001234567 LQA14141414+0000  MQA14151415+0000  M1F                                                     YF                  L                       PP26                  000003
3 LH 0428xxxxF01JAN0001JAN001234567 MQA14161416+0000  NQA14171417+0000  M1F                                                     YF                  L                       PP26                  000003
3 LH 0429xxxxF01JAN0001JAN001234567 NQA14181418+0000  OQA14191419+0000  M1F                                                     YF                  L                       PP26                  000003
3 LH 0430xxxxF01JAN0001JAN001234567 OQA14201420+0000  PQA14211421+0000  M1F                                                     YF                  L                       PP26                  000003
3 LH 0431xxxxF01JAN0001JAN001234567 PQA14221422+0000  QQA14231423+0000  M1F                                                     YF                  L                       PP26                  000003
3 LH 0432xxxxF01JAN0001JAN001234567 QQA14241424+0000  RQA14251425+0000  M1F                                                     YF                  L                       PP26                  000003
3 LH 0433xxxxF01JAN0001JAN001234567 RQA14261426+0000  SQA14271427+0000  M1F                                                     YF                  L                       PP26                  000003
3 LH 0434xxxxF01JAN0001JAN001234567 SQA14281428+0000  TQA14291429+0000  M1F                                                     YF                  L                       PP26                  000003
3 LH 0435xxxxF01JAN0001JAN001234567 TQA14301430+0000  UQA14311431+0000  M1F                                                     YF                  L                       PP26                  000003
3 LH 0436xxxxF01JAN0001JAN001234567 UQA14321432+0000  VQA14331433+0000  M1F                                                     YF                  L                       PP26                  000003
3 LH 0437xxxxF01JAN0001JAN001234567 VQA14341434+0000  WQA14351435+0000  M1F                                                     YF                  L                       PP26                  000003
3 LH 0438xxxxF01JAN0001JAN001234567 WQA14361436+0000  XQA14371437+0000  M1F                                                     YF                  L                       PP26                  000003
3 LH 0439xxxxF01JAN0001JAN001234567 XQA14381438+0000  YQA14391439+0000  M1F                                                     YF                  L                       PP26                  000003
3 LH 0440xxxxF01JAN0001JAN001234567 YQA14401440+0000  ZQA14411441+0000  M1F                                                     YF                  L                       PP26                  000003
3 LH 0441xxxxF01JAN0001JAN001234567 ZQA14421442+0000  ARA14431443+0000  M1F                                                     YF                  L                       PP26                  000003
3 LH 0442xxxxF01JAN0001JAN001234567 ARA14441444+0000  BRA14451445+0000  M1F                                                     YF                  L                       PP26                  000003
3 LH 0443xxxxF01JAN0001JAN001234567 BRA14461446+0000  CRA14471447+0000  M1F                                                     YF                  L                       PP26                  000003
3 LH 0444xxxxF01JAN0001JAN001234567 CRA14481448+0000  DRA14491449+0000  M1F                                                     YF                  L                       PP26                  000003
3 LH 0445xxxxF01JAN0001JAN001234567 DRA14501450+0000  ERA14511451+0000  M1F                                                     YF                  L                       PP26                  000003
3 LH 0446xxxxF01JAN0001JAN001234567 ERA14521452+0000  FRA14531453+0000  M1F                                                     YF                  L                       PP26                  000003
3 LH 0447xxxxF01JAN0001JAN001234567 FRA14541454+0000  GRA14551455+0000  M1F                                                     YF                  L                       PP26                  000003
3 LH 0448xxxxF01JAN0001JAN001234567 GRA14561456+0000  HRA14571457+0000  M1F                                                     YF                  L                       PP26                  000003
3 LH 0449xxxxF01JAN0001JAN001234567 HRA14581458+0000  IRA14591459+0000  M1F                                                     YF                  L                       PP26                  000003
3 LH 0450xxxxF01JAN0001JAN001234567 IRA15001500+0000  JRA15011501+0000  M1F                                                     YF                  L                       PP26                  000003
3 LH 0451xxxxF01JAN0001JAN001234567 JRA15021502+0000  KRA15031503+0000  M1F                                                     YF                  L                       PP26                  000003
3 LH 0452xxxxF01JAN0001JAN001234567 KRA15041504+0000  LRA15051505+0000  M1F                                                     YF                  L                       PP26                  000003
3 LH 0453xxxxF01JAN0001JAN001234567 LRA15061506+0000  MRA15071507+0000  M1F                                                     YF                  L                       PP26                  000003
3 LH 0454xxxxF01JAN0001JAN001234567 MRA15081508+0000  NRA15091509+0000  M1F                                                     YF                  L                       PP26                  000003
3 LH 0455xxxxF01JAN0001JAN001234567 NRA15101510+0000  ORA15111511+0000  M1F                                                     YF                  L                       PP26                  000003
3 LH 0456xxxxF01JAN0001JAN001234567 ORA15121512+0000  PRA15131513+0000  M1F                                                     YF                  L                       PP26                  000003
3 LH 0457xxxxF01JAN0001JAN001234567 PRA15141514+0000  QRA15151515+0000  M1F                                                     YF                  L                       PP26                  000003
3 LH 0458xxxxF01JAN0001JAN001234567 QRA15161516+0000  RRA15171517+0000  M1F                                                     YF                  L                       PP26                  000003
3 LH 0459xxxxF01JAN0001JAN001234567 RRA15181518+0000  SRA15191519+0000  M1F                                                     YF                  L                       PP26                  000003
3 LH 0460xxxxF01JAN0001JAN001234567 SRA15201520+0000  TRA15211521+0000  M1F                                                     YF                  L                       PP26                  000003
3 LH 0461xxxxF01JAN0001JAN001234567 TRA15221522+0000  URA15231523+0000  M1F                                                     YF                  L                       PP26                  000003
3 LH 0462xxxxF01JAN0001JAN001234567 URA15241524+0000  VRA15251525+0000  M1F                                                     YF                  L                       PP26                  000003
3 LH 0463xxxxF01JAN0001JAN001234567 VRA15261526+0000  WRA15271527+0000  M1F                                                     YF                  L                       PP26                  000003
3 LH 0464xxxxF01JAN0001JAN001234567 WRA15281528+0000  XRA15291529+0000  M1F                                                     YF                  L                       PP26                  000003
3 LH 0465xxxxF01JAN0001JAN001234567 XRA15301530+0000  YRA15311531+0000  M1F                                                     YF                  L                       PP26                  000003
3 LH 0466xxxxF01JAN0001JAN001234567 YRA15321532+0000  ZRA15331533+0000  M1F                                                     YF                  L                       PP26                  000003
3 LH 0467xxxxF01JAN0001JAN001234567 ZRA15341534+0000  ASA15351535+0000  M1F                                                     YF                  L                       PP26                  000003
3 LH 0468xxxxF01JAN0001JAN001234567 ASA15361536+0000  BSA15371537+0000  M1F                                                     YF                  L                       PP26                  000003
3 LH 0469xxxxF01JAN0001JAN001234567 BSA15381538+0000  CSA15391539+0000  M1F                                                     YF                  L                       PP26                  000003
3 LH 0470xxxxF01JAN0001JAN001234567 CSA15401540+0000  DSA15411541+0000  M1F                                                     YF                  L                       PP26                  000003
3 LH 0471xxxxF01JAN0001JAN001234567 DSA15421542+0000  ESA15431543+0000  M1F                                                     YF                  L                       PP26                  000003
3 LH 0472xxxxF01JAN0001JAN001234567 ESA15441544+0000  FSA15451545+0000  M1F                                                     YF                  L                       PP26                  000003
3 LH 0473xxxxF01JAN0001JAN001234567 FSA15461546+0000  GSA15471547+0000  M1F                                                     YF                  L                       PP26                  000003
3 LH 0474xxxxF01JAN0001JAN001234567 GSA15481548+0000  HSA15491549+0000  M1F                                                     YF                  L                       PP26                  000003
3 LH 0475xxxxF01JAN0001JAN001234567 HSA15501550+0000  ISA15511551+0000  M1F                                                     YF                  L                       PP26                  000003
3 LH 0476xxxxF01JAN0001JAN001234567 ISA15521552+0000  JSA15531553+0000  M1F                                                     YF                  L                       PP26                  000003
3 LH 0477xxxxF01JAN0001JAN001234567 JSA15541554+0000  KSA15551555+0000  M1F                                                     YF                  L                       PP26                  000003
3 LH 0478xxxxF01JAN0001JAN001234567 KSA15561556+0000  LSA15571557+0000  M1F                                                     YF                  L                       PP26                  000003
3 LH 0479xxxxF01JAN0001JAN001234567 LSA15581558+0000  MSA15591559+0000  M1F                                                     YF                  L                       PP26                  000003
3 LH 0480xxxxF01JAN0001JAN001234567 MSA16001600+0000  NSA16011601+0000  M1F                                                     YF                  L                       PP26                  000003
3 LH 0481xxxxF01JAN0001JAN001234567 NSA16021602+0000  OSA16031603+0000  M1F                                                     YF                  L                       PP26                  000003
3 LH 0482xxxxF01JAN0001JAN001234567 OSA16041604+0000  PSA16051605+0000  M1F                                                     YF                  L                       PP26                  000003
3 LH 0483xxxxF01JAN0001JAN001234567 PSA16061606+0000  QSA16071607+0000  M1F                                                     YF                  L                       PP26                  000003
3 LH 0484xxxxF01JAN0001JAN001234567 QSA16081608+0000  RSA16091609+0000  M1F                                                     YF                  L                       PP26                  000003
3 LH 0485xxxxF01JAN0001JAN001234567 RSA16101610+0000  SSA16111611+0000  M1F                                                     YF                  L                       PP26                  000003
3 LH 0486xxxxF01JAN0001JAN001234567 SSA16121612+0000  TSA16131613+0000  M1F                                                     YF                  L                       PP26                  000003
